{
  "_format": "hh-sol-artifact-1",
  "contractName": "Crowdfunding",
  "sourceName": "contracts/Crowdfunding.sol",
  "abi": [
    {
      "anonymous": false,
      "inputs": [
        {
          "indexed": true,
          "internalType": "address",
          "name": "creator",
          "type": "address"
        },
        {
          "indexed": true,
          "internalType": "address",
          "name": "projectAddress",
          "type": "address"
        },
        {
          "indexed": false,
          "internalType": "string",
          "name": "title",
          "type": "string"
        }
      ],
      "name": "ProjectCreated",
      "type": "event"
    },
    {
      "inputs": [
        {
          "internalType": "string",
          "name": "_title",
          "type": "string"
        },
        {
          "internalType": "string",
          "name": "_description",
          "type": "string"
        },
        {
          "internalType": "uint256",
          "name": "_goal",
          "type": "uint256"
        }
      ],
      "name": "createProject",
      "outputs": [],
      "stateMutability": "nonpayable",
      "type": "function"
    },
    {
      "inputs": [
        {
          "internalType": "uint256",
          "name": "limit",
          "type": "uint256"
        },
        {
          "internalType": "uint256",
          "name": "offset",
          "type": "uint256"
        }
      ],
      "name": "getProjects",
      "outputs": [
        {
          "internalType": "contract Project[]",
          "name": "projects",
          "type": "address[]"
        }
      ],
      "stateMutability": "view",
      "type": "function"
    },
    {
      "inputs": [],
      "name": "projectsCount",
      "outputs": [
        {
          "internalType": "uint256",
          "name": "",
          "type": "uint256"
        }
      ],
      "stateMutability": "view",
      "type": "function"
    }
  ],
  "bytecode": "0x60806040526014600055348015601457600080fd5b50613e9a806100246000396000f3fe608060405234801561001057600080fd5b50600436106100415760003560e01c806323c5544814610046578063a84ce2b514610062578063c73b302e14610092575b600080fd5b610060600480360381019061005b91906105b2565b6100b0565b005b61007c6004803603810190610077919061063d565b610287565b60405161008991906107ab565b60405180910390f35b61009a610408565b6040516100a791906107dc565b60405180910390f35b60008351116100f4576040517f08c379a00000000000000000000000000000000000000000000000000000000081526004016100eb90610854565b60405180910390fd5b6000825111610138576040517f08c379a000000000000000000000000000000000000000000000000000000000815260040161012f906108c0565b60405180910390fd5b6000811161017b576040517f08c379a00000000000000000000000000000000000000000000000000000000081526004016101729061092c565b60405180910390fd5b60008383833360405161018d90610415565b61019a94939291906109db565b604051809103906000f0801580156101b6573d6000803e3d6000fd5b5090506001819080600181540180825580915050600190039060005260206000200160009091909190916101000a81548173ffffffffffffffffffffffffffffffffffffffff021916908373ffffffffffffffffffffffffffffffffffffffff1602179055508073ffffffffffffffffffffffffffffffffffffffff163373ffffffffffffffffffffffffffffffffffffffff167f697eb6e241ee40220fc0d3c2623da1c8412fdb0a50d9dc90414859dafa57a4a5866040516102799190610a2e565b60405180910390a350505050565b6060610291610408565b8211156102d3576040517f08c379a00000000000000000000000000000000000000000000000000000000081526004016102ca90610a9c565b60405180910390fd5b6000826102de610408565b6102e89190610aeb565b9050838111156102f6578390505b6000548111156103065760005490505b8067ffffffffffffffff8111156103205761031f610451565b5b60405190808252806020026020018201604052801561034e5781602001602082028036833780820191505090505b50915060005b81811015610400576001818561036a9190610b1f565b8154811061037b5761037a610b53565b5b9060005260206000200160009054906101000a900473ffffffffffffffffffffffffffffffffffffffff168382815181106103b9576103b8610b53565b5b602002602001019073ffffffffffffffffffffffffffffffffffffffff16908173ffffffffffffffffffffffffffffffffffffffff16815250508080600101915050610354565b505092915050565b6000600180549050905090565b6132e280610b8383390190565b6000604051905090565b600080fd5b600080fd5b600080fd5b600080fd5b6000601f19601f8301169050919050565b7f4e487b7100000000000000000000000000000000000000000000000000000000600052604160045260246000fd5b61048982610440565b810181811067ffffffffffffffff821117156104a8576104a7610451565b5b80604052505050565b60006104bb610422565b90506104c78282610480565b919050565b600067ffffffffffffffff8211156104e7576104e6610451565b5b6104f082610440565b9050602081019050919050565b82818337600083830152505050565b600061051f61051a846104cc565b6104b1565b90508281526020810184848401111561053b5761053a61043b565b5b6105468482856104fd565b509392505050565b600082601f83011261056357610562610436565b5b813561057384826020860161050c565b91505092915050565b6000819050919050565b61058f8161057c565b811461059a57600080fd5b50565b6000813590506105ac81610586565b92915050565b6000806000606084860312156105cb576105ca61042c565b5b600084013567ffffffffffffffff8111156105e9576105e8610431565b5b6105f58682870161054e565b935050602084013567ffffffffffffffff81111561061657610615610431565b5b6106228682870161054e565b92505060406106338682870161059d565b9150509250925092565b600080604083850312156106545761065361042c565b5b60006106628582860161059d565b92505060206106738582860161059d565b9150509250929050565b600081519050919050565b600082825260208201905092915050565b6000819050602082019050919050565b600073ffffffffffffffffffffffffffffffffffffffff82169050919050565b6000819050919050565b60006106ee6106e96106e4846106a9565b6106c9565b6106a9565b9050919050565b6000610700826106d3565b9050919050565b6000610712826106f5565b9050919050565b61072281610707565b82525050565b60006107348383610719565b60208301905092915050565b6000602082019050919050565b60006107588261067d565b6107628185610688565b935061076d83610699565b8060005b8381101561079e5781516107858882610728565b975061079083610740565b925050600181019050610771565b5085935050505092915050565b600060208201905081810360008301526107c5818461074d565b905092915050565b6107d68161057c565b82525050565b60006020820190506107f160008301846107cd565b92915050565b600082825260208201905092915050565b7f5469746c65206973207265717569726564000000000000000000000000000000600082015250565b600061083e6011836107f7565b915061084982610808565b602082019050919050565b6000602082019050818103600083015261086d81610831565b9050919050565b7f4465736372697074696f6e206973207265717569726564000000000000000000600082015250565b60006108aa6017836107f7565b91506108b582610874565b602082019050919050565b600060208201905081810360008301526108d98161089d565b9050919050565b7f476f616c206d7573742062652067726561746572207468616e207a65726f0000600082015250565b6000610916601e836107f7565b9150610921826108e0565b602082019050919050565b6000602082019050818103600083015261094581610909565b9050919050565b600081519050919050565b60005b8381101561097557808201518184015260208101905061095a565b60008484015250505050565b600061098c8261094c565b61099681856107f7565b93506109a6818560208601610957565b6109af81610440565b840191505092915050565b60006109c5826106a9565b9050919050565b6109d5816109ba565b82525050565b600060808201905081810360008301526109f58187610981565b90508181036020830152610a098186610981565b9050610a1860408301856107cd565b610a2560608301846109cc565b95945050505050565b60006020820190508181036000830152610a488184610981565b905092915050565b7f4f6666736574206f7574206f6620626f756e6473000000000000000000000000600082015250565b6000610a866014836107f7565b9150610a9182610a50565b602082019050919050565b60006020820190508181036000830152610ab581610a79565b9050919050565b7f4e487b7100000000000000000000000000000000000000000000000000000000600052601160045260246000fd5b6000610af68261057c565b9150610b018361057c565b9250828203905081811115610b1957610b18610abc565b5b92915050565b6000610b2a8261057c565b9150610b358361057c565b9250828201905080821115610b4d57610b4c610abc565b5b92915050565b7f4e487b7100000000000000000000000000000000000000000000000000000000600052603260045260246000fdfe608060405234801561001057600080fd5b506040516132e23803806132e28339818101604052810190610032919061061b565b33600073ffffffffffffffffffffffffffffffffffffffff168173ffffffffffffffffffffffffffffffffffffffff16036100a55760006040517f1e4fbdf700000000000000000000000000000000000000000000000000000000815260040161009c91906106c9565b60405180910390fd5b6100b4816101f260201b60201c565b5060008451116100f9576040517f08c379a00000000000000000000000000000000000000000000000000000000081526004016100f090610741565b60405180910390fd5b600083511161013d576040517f08c379a0000000000000000000000000000000000000000000000000000000008152600401610134906107ad565b60405180910390fd5b60008211610180576040517f08c379a000000000000000000000000000000000000000000000000000000000815260040161017790610819565b60405180910390fd5b836006908161018f9190610a50565b50826007908161019f9190610a50565b508160088190555060006009819055506000600560006101000a81548160ff021916908360028111156101d5576101d4610b22565b5b02179055506101e9816102b660201b60201c565b50505050610b51565b60008060009054906101000a900473ffffffffffffffffffffffffffffffffffffffff169050816000806101000a81548173ffffffffffffffffffffffffffffffffffffffff021916908373ffffffffffffffffffffffffffffffffffffffff1602179055508173ffffffffffffffffffffffffffffffffffffffff168173ffffffffffffffffffffffffffffffffffffffff167f8be0079c531659141344cd1fd0a4f28419497f9722a3daafe3b4186f6b6457e060405160405180910390a35050565b6102c461034860201b60201c565b600073ffffffffffffffffffffffffffffffffffffffff168173ffffffffffffffffffffffffffffffffffffffff16036103365760006040517f1e4fbdf700000000000000000000000000000000000000000000000000000000815260040161032d91906106c9565b60405180910390fd5b610345816101f260201b60201c565b50565b6103566103e160201b60201c565b73ffffffffffffffffffffffffffffffffffffffff1661037a6103e960201b60201c565b73ffffffffffffffffffffffffffffffffffffffff16146103df576103a36103e160201b60201c565b6040517f118cdaa70000000000000000000000000000000000000000000000000000000081526004016103d691906106c9565b60405180910390fd5b565b600033905090565b60008060009054906101000a900473ffffffffffffffffffffffffffffffffffffffff16905090565b6000604051905090565b600080fd5b600080fd5b600080fd5b600080fd5b6000601f19601f8301169050919050565b7f4e487b7100000000000000000000000000000000000000000000000000000000600052604160045260246000fd5b61047982610430565b810181811067ffffffffffffffff8211171561049857610497610441565b5b80604052505050565b60006104ab610412565b90506104b78282610470565b919050565b600067ffffffffffffffff8211156104d7576104d6610441565b5b6104e082610430565b9050602081019050919050565b60005b8381101561050b5780820151818401526020810190506104f0565b60008484015250505050565b600061052a610525846104bc565b6104a1565b9050828152602081018484840111156105465761054561042b565b5b6105518482856104ed565b509392505050565b600082601f83011261056e5761056d610426565b5b815161057e848260208601610517565b91505092915050565b6000819050919050565b61059a81610587565b81146105a557600080fd5b50565b6000815190506105b781610591565b92915050565b600073ffffffffffffffffffffffffffffffffffffffff82169050919050565b60006105e8826105bd565b9050919050565b6105f8816105dd565b811461060357600080fd5b50565b600081519050610615816105ef565b92915050565b600080600080608085870312156106355761063461041c565b5b600085015167ffffffffffffffff81111561065357610652610421565b5b61065f87828801610559565b945050602085015167ffffffffffffffff8111156106805761067f610421565b5b61068c87828801610559565b935050604061069d878288016105a8565b92505060606106ae87828801610606565b91505092959194509250565b6106c3816105dd565b82525050565b60006020820190506106de60008301846106ba565b92915050565b600082825260208201905092915050565b7f5469746c65206973207265717569726564000000000000000000000000000000600082015250565b600061072b6011836106e4565b9150610736826106f5565b602082019050919050565b6000602082019050818103600083015261075a8161071e565b9050919050565b7f4465736372697074696f6e206973207265717569726564000000000000000000600082015250565b60006107976017836106e4565b91506107a282610761565b602082019050919050565b600060208201905081810360008301526107c68161078a565b9050919050565b7f476f616c206d7573742062652067726561746572207468616e207a65726f0000600082015250565b6000610803601e836106e4565b915061080e826107cd565b602082019050919050565b60006020820190508181036000830152610832816107f6565b9050919050565b600081519050919050565b7f4e487b7100000000000000000000000000000000000000000000000000000000600052602260045260246000fd5b6000600282049050600182168061088b57607f821691505b60208210810361089e5761089d610844565b5b50919050565b60008190508160005260206000209050919050565b60006020601f8301049050919050565b600082821b905092915050565b6000600883026109067fffffffffffffffffffffffffffffffffffffffffffffffffffffffffffffffff826108c9565b61091086836108c9565b95508019841693508086168417925050509392505050565b6000819050919050565b600061094d61094861094384610587565b610928565b610587565b9050919050565b6000819050919050565b61096783610932565b61097b61097382610954565b8484546108d6565b825550505050565b600090565b610990610983565b61099b81848461095e565b505050565b5b818110156109bf576109b4600082610988565b6001810190506109a1565b5050565b601f821115610a04576109d5816108a4565b6109de846108b9565b810160208510156109ed578190505b610a016109f9856108b9565b8301826109a0565b50505b505050565b600082821c905092915050565b6000610a2760001984600802610a09565b1980831691505092915050565b6000610a408383610a16565b9150826002028217905092915050565b610a5982610839565b67ffffffffffffffff811115610a7257610a71610441565b5b610a7c8254610873565b610a878282856109c3565b600060209050601f831160018114610aba5760008415610aa8578287015190505b610ab28582610a34565b865550610b1a565b601f198416610ac8866108a4565b60005b82811015610af057848901518255600182019150602085019450602081019050610acb565b86831015610b0d5784890151610b09601f891682610a16565b8355505b6001600288020188555050505b505050505050565b7f4e487b7100000000000000000000000000000000000000000000000000000000600052602160045260246000fd5b61278280610b606000396000f3fe60806040526004361061019c5760003560e01c80637284e416116100ec578063ce1b088a1161008a578063f2fde38b11610064578063f2fde38b1461057e578063f5d1282b146105a7578063fc0e9739146105e5578063ff3c1a8f146105fc5761019c565b8063ce1b088a14610532578063ed88c68e14610549578063ee6f5dac146105535761019c565b80639299b4a0116100c65780639299b4a014610460578063a7e3e2b81461048c578063b97a7d24146104ca578063cc6cb19a146104f55761019c565b80637284e416146103de5780638da5cb5b146104095780638f96e08b146104345761019c565b806334746b7f116101595780634a79d50c116101335780634a79d50c146103345780634abfa1631461035f5780634e69d5601461039c578063715018a6146103c75761019c565b806334746b7f1461029f57806338a59a07146102dc57806340193883146103095761019c565b80630109a523146101a15780630812a37f146101de5780631a092541146101f55780631adff0ee146102205780631faaa31514610237578063200d2ed214610274575b600080fd5b3480156101ad57600080fd5b506101c860048036038101906101c39190611eb9565b610627565b6040516101d59190611f27565b60405180910390f35b3480156101ea57600080fd5b506101f3610666565b005b34801561020157600080fd5b5061020a6107bf565b6040516102179190611fd2565b60405180910390f35b34801561022c57600080fd5b50610235610851565b005b34801561024357600080fd5b5061025e60048036038101906102599190612020565b610928565b60405161026b919061205c565b60405180910390f35b34801561028057600080fd5b50610289610971565b60405161029691906120ee565b60405180910390f35b3480156102ab57600080fd5b506102c660048036038101906102c19190611eb9565b610984565b6040516102d3919061205c565b60405180910390f35b3480156102e857600080fd5b506102f16109a8565b60405161030093929190612285565b60405180910390f35b34801561031557600080fd5b5061031e610c1f565b60405161032b919061205c565b60405180910390f35b34801561034057600080fd5b50610349610c25565b6040516103569190611fd2565b60405180910390f35b34801561036b57600080fd5b5061038660048036038101906103819190611eb9565b610cb3565b6040516103939190611f27565b60405180910390f35b3480156103a857600080fd5b506103b1610cf2565b6040516103be91906120ee565b60405180910390f35b3480156103d357600080fd5b506103dc610d09565b005b3480156103ea57600080fd5b506103f3610d1d565b6040516104009190611fd2565b60405180910390f35b34801561041557600080fd5b5061041e610dab565b60405161042b9190611f27565b60405180910390f35b34801561044057600080fd5b50610449610dd4565b6040516104579291906122d1565b60405180910390f35b34801561046c57600080fd5b50610475610e4c565b6040516104839291906122fa565b60405180910390f35b34801561049857600080fd5b506104b360048036038101906104ae9190612020565b610f35565b6040516104c19291906122d1565b60405180910390f35b3480156104d657600080fd5b506104df610f59565b6040516104ec919061205c565b60405180910390f35b34801561050157600080fd5b5061051c60048036038101906105179190612020565b610f63565b604051610529919061205c565b60405180910390f35b34801561053e57600080fd5b50610547610f7b565b005b61055161118c565b005b34801561055f57600080fd5b50610568611377565b604051610575919061205c565b60405180910390f35b34801561058a57600080fd5b506105a560048036038101906105a09190612020565b61137d565b005b3480156105b357600080fd5b506105ce60048036038101906105c99190611eb9565b611403565b6040516105dc9291906122fa565b60405180910390f35b3480156105f157600080fd5b506105fa6118e1565b005b34801561060857600080fd5b50610611611a0c565b60405161061e9190611fd2565b60405180910390f35b6003818154811061063757600080fd5b906000526020600020016000915054906101000a900473ffffffffffffffffffffffffffffffffffffffff1681565b6000600160003373ffffffffffffffffffffffffffffffffffffffff1673ffffffffffffffffffffffffffffffffffffffff168152602001908152602001600020549050600081116106ed576040517f08c379a00000000000000000000000000000000000000000000000000000000081526004016106e4906123a3565b60405180910390fd5b6000600160003373ffffffffffffffffffffffffffffffffffffffff1673ffffffffffffffffffffffffffffffffffffffff168152602001908152602001600020819055503373ffffffffffffffffffffffffffffffffffffffff166108fc829081150290604051600060405180830381858888f19350505050158015610778573d6000803e3d6000fd5b503373ffffffffffffffffffffffffffffffffffffffff167f90d20a1d7c414bc708da5bffa4bfc83bb00cef0f32df04098f94d4e602eadd7a60405160405180910390a250565b6060600780546107ce906123f2565b80601f01602080910402602001604051908101604052809291908181526020018280546107fa906123f2565b80156108475780601f1061081c57610100808354040283529160200191610847565b820191906000526020600020905b81548152906001019060200180831161082a57829003601f168201915b5050505050905090565b610859611a9e565b6000600281111561086d5761086c612077565b5b600560009054906101000a900460ff16600281111561088f5761088e612077565b5b146108cf576040517f08c379a00000000000000000000000000000000000000000000000000000000081526004016108c69061246f565b60405180910390fd5b6002600560006101000a81548160ff021916908360028111156108f5576108f4612077565b5b02179055507f92c439fda90c70ccdedcb94d28a14f9fda69d67124efbbe9bf905740194228c860405160405180910390a1565b6000600160008373ffffffffffffffffffffffffffffffffffffffff1673ffffffffffffffffffffffffffffffffffffffff168152602001908152602001600020549050919050565b600560009054906101000a900460ff1681565b6004818154811061099457600080fd5b906000526020600020016000915090505481565b60608060606000600280549050905060008167ffffffffffffffff8111156109d3576109d261248f565b5b604051908082528060200260200182016040528015610a015781602001602082028036833780820191505090505b50905060008267ffffffffffffffff811115610a2057610a1f61248f565b5b604051908082528060200260200182016040528015610a4e5781602001602082028036833780820191505090505b50905060008367ffffffffffffffff811115610a6d57610a6c61248f565b5b604051908082528060200260200182016040528015610a9b5781602001602082028036833780820191505090505b50905060005b84811015610c0c57600060028281548110610abf57610abe6124be565b5b9060005260206000200160009054906101000a900473ffffffffffffffffffffffffffffffffffffffff16905080858381518110610b0057610aff6124be565b5b602002602001019073ffffffffffffffffffffffffffffffffffffffff16908173ffffffffffffffffffffffffffffffffffffffff1681525050600a60008273ffffffffffffffffffffffffffffffffffffffff1673ffffffffffffffffffffffffffffffffffffffff16815260200190815260200160002060000154848381518110610b9057610b8f6124be565b5b602002602001018181525050600a60008273ffffffffffffffffffffffffffffffffffffffff1673ffffffffffffffffffffffffffffffffffffffff16815260200190815260200160002060010154838381518110610bf257610bf16124be565b5b602002602001018181525050508080600101915050610aa1565b5082828296509650965050505050909192565b60085481565b60068054610c32906123f2565b80601f0160208091040260200160405190810160405280929190818152602001828054610c5e906123f2565b8015610cab5780601f10610c8057610100808354040283529160200191610cab565b820191906000526020600020905b815481529060010190602001808311610c8e57829003601f168201915b505050505081565b60028181548110610cc357600080fd5b906000526020600020016000915054906101000a900473ffffffffffffffffffffffffffffffffffffffff1681565b6000600560009054906101000a900460ff16905090565b610d11611a9e565b610d1b6000611b25565b565b60078054610d2a906123f2565b80601f0160208091040260200160405190810160405280929190818152602001828054610d56906123f2565b8015610da35780601f10610d7857610100808354040283529160200191610da3565b820191906000526020600020905b815481529060010190602001808311610d8657829003601f168201915b505050505081565b60008060009054906101000a900473ffffffffffffffffffffffffffffffffffffffff16905090565b6000806000600a60003373ffffffffffffffffffffffffffffffffffffffff1673ffffffffffffffffffffffffffffffffffffffff1681526020019081526020016000206040518060400160405290816000820154815260200160018201548152505090508060000151816020015192509250509091565b6060806003600481805480602002602001604051908101604052809291908181526020018280548015610ed457602002820191906000526020600020905b8160009054906101000a900473ffffffffffffffffffffffffffffffffffffffff1673ffffffffffffffffffffffffffffffffffffffff1681526020019060010190808311610e8a575b5050505050915080805480602002602001604051908101604052809291908181526020018280548015610f2657602002820191906000526020600020905b815481526020019060010190808311610f12575b50505050509050915091509091565b600a6020528060005260406000206000915090508060000154908060010154905082565b6000600854905090565b60016020528060005260406000206000915090505481565b6000610f85611be9565b60005b6002805490508110156110b0576001600060028381548110610fad57610fac6124be565b5b9060005260206000200160009054906101000a900473ffffffffffffffffffffffffffffffffffffffff1673ffffffffffffffffffffffffffffffffffffffff1673ffffffffffffffffffffffffffffffffffffffff168152602001908152602001600020548261101e919061251c565b91506000600160006002848154811061103a576110396124be565b5b9060005260206000200160009054906101000a900473ffffffffffffffffffffffffffffffffffffffff1673ffffffffffffffffffffffffffffffffffffffff1673ffffffffffffffffffffffffffffffffffffffff168152602001908152602001600020819055508080600101915050610f88565b50600081116110f4576040517f08c379a00000000000000000000000000000000000000000000000000000000081526004016110eb906123a3565b60405180910390fd5b3373ffffffffffffffffffffffffffffffffffffffff166108fc829081150290604051600060405180830381858888f1935050505015801561113a573d6000803e3d6000fd5b503373ffffffffffffffffffffffffffffffffffffffff167f52ea9e2ddd43c3b17b6bd3d3717486e04be1ce2a48e7bf27a6a51acb2e355d8782604051611181919061205c565b60405180910390a250565b600060028111156111a05761119f612077565b5b600560009054906101000a900460ff1660028111156111c2576111c1612077565b5b14611202576040517f08c379a00000000000000000000000000000000000000000000000000000000081526004016111f9906125c2565b60405180910390fd5b60003411611245576040517f08c379a000000000000000000000000000000000000000000000000000000000815260040161123c90612654565b60405180910390fd5b6000339050600034905080600a60008473ffffffffffffffffffffffffffffffffffffffff1673ffffffffffffffffffffffffffffffffffffffff16815260200190815260200160002060000160008282546112a1919061251c565b925050819055506001600a60008473ffffffffffffffffffffffffffffffffffffffff1673ffffffffffffffffffffffffffffffffffffffff16815260200190815260200160002060010160008282546112fb919061251c565b9250508190555061130c8282611d12565b806009600082825461131e919061251c565b925050819055508173ffffffffffffffffffffffffffffffffffffffff167f264f630d9efa0d07053a31163641d9fcc0adafc9d9e76f1c37c2ce3a558d2c528260405161136b919061205c565b60405180910390a25050565b60095481565b611385611a9e565b600073ffffffffffffffffffffffffffffffffffffffff168173ffffffffffffffffffffffffffffffffffffffff16036113f75760006040517f1e4fbdf70000000000000000000000000000000000000000000000000000000081526004016113ee9190611f27565b60405180910390fd5b61140081611b25565b50565b60608060008311801561141b57506002805490508311155b61145a576040517f08c379a0000000000000000000000000000000000000000000000000000000008152600401611451906126c0565b60405180910390fd5b60008367ffffffffffffffff8111156114765761147561248f565b5b6040519080825280602002602001820160405280156114a45781602001602082028036833780820191505090505b50905060008467ffffffffffffffff8111156114c3576114c261248f565b5b6040519080825280602002602001820160405280156114f15781602001602082028036833780820191505090505b5090506000600280548060200260200160405190810160405280929190818152602001828054801561157857602002820191906000526020600020905b8160009054906101000a900473ffffffffffffffffffffffffffffffffffffffff1673ffffffffffffffffffffffffffffffffffffffff168152602001906001019080831161152e575b50505050509050600060028054905067ffffffffffffffff8111156115a05761159f61248f565b5b6040519080825280602002602001820160405280156115ce5781602001602082028036833780820191505090505b50905060005b60028054905081101561166757600160008483815181106115f8576115f76124be565b5b602002602001015173ffffffffffffffffffffffffffffffffffffffff1673ffffffffffffffffffffffffffffffffffffffff1681526020019081526020016000205482828151811061164e5761164d6124be565b5b60200260200101818152505080806001019150506115d4565b5060005b878110156118d15760008190506000600183611687919061251c565b90505b84518110156116e0578382815181106116a6576116a56124be565b5b60200260200101518482815181106116c1576116c06124be565b5b602002602001015111156116d3578091505b808060010191505061168a565b508381815181106116f4576116f36124be565b5b602002602001015184838151811061170f5761170e6124be565b5b602002602001015185848151811061172a576117296124be565b5b60200260200101868481518110611744576117436124be565b5b602002602001018273ffffffffffffffffffffffffffffffffffffffff1673ffffffffffffffffffffffffffffffffffffffff168152508273ffffffffffffffffffffffffffffffffffffffff1673ffffffffffffffffffffffffffffffffffffffff1681525050508281815181106117c0576117bf6124be565b5b60200260200101518383815181106117db576117da6124be565b5b60200260200101518484815181106117f6576117f56124be565b5b602002602001018584815181106118105761180f6124be565b5b6020026020010182815250828152505050838281518110611834576118336124be565b5b602002602001015186838151811061184f5761184e6124be565b5b602002602001019073ffffffffffffffffffffffffffffffffffffffff16908173ffffffffffffffffffffffffffffffffffffffff168152505082828151811061189c5761189b6124be565b5b60200260200101518583815181106118b7576118b66124be565b5b60200260200101818152505050808060010191505061166b565b5083839550955050505050915091565b6118e9611a9e565b600060028111156118fd576118fc612077565b5b600560009054906101000a900460ff16600281111561191f5761191e612077565b5b1461195f576040517f08c379a00000000000000000000000000000000000000000000000000000000081526004016119569061246f565b60405180910390fd5b60085460095410156119a6576040517f08c379a000000000000000000000000000000000000000000000000000000000815260040161199d9061272c565b60405180910390fd5b6001600560006101000a81548160ff021916908360028111156119cc576119cb612077565b5b02179055507f60d8df137e489b6216738e436244ca4700bd6d0c8371d3c8d9c80b54538111b9600954604051611a02919061205c565b60405180910390a1565b606060068054611a1b906123f2565b80601f0160208091040260200160405190810160405280929190818152602001828054611a47906123f2565b8015611a945780601f10611a6957610100808354040283529160200191611a94565b820191906000526020600020905b815481529060010190602001808311611a7757829003601f168201915b5050505050905090565b611aa6611e17565b73ffffffffffffffffffffffffffffffffffffffff16611ac4610dab565b73ffffffffffffffffffffffffffffffffffffffff1614611b2357611ae7611e17565b6040517f118cdaa7000000000000000000000000000000000000000000000000000000008152600401611b1a9190611f27565b60405180910390fd5b565b60008060009054906101000a900473ffffffffffffffffffffffffffffffffffffffff169050816000806101000a81548173ffffffffffffffffffffffffffffffffffffffff021916908373ffffffffffffffffffffffffffffffffffffffff1602179055508173ffffffffffffffffffffffffffffffffffffffff168173ffffffffffffffffffffffffffffffffffffffff167f8be0079c531659141344cd1fd0a4f28419497f9722a3daafe3b4186f6b6457e060405160405180910390a35050565b6000600a60028054905010611bff57600a611c06565b6002805490505b9050600080611c1483611403565b9150915060036000611c269190611e1f565b60046000611c349190611e40565b60005b83811015611d0c576003838281518110611c5457611c536124be565b5b60200260200101519080600181540180825580915050600190039060005260206000200160009091909190916101000a81548173ffffffffffffffffffffffffffffffffffffffff021916908373ffffffffffffffffffffffffffffffffffffffff1602179055506004828281518110611cd157611cd06124be565b5b602002602001015190806001815401808255809150506001900390600052602060002001600090919091909150558080600101915050611c37565b50505050565b6000600160008473ffffffffffffffffffffffffffffffffffffffff1673ffffffffffffffffffffffffffffffffffffffff1681526020019081526020016000205403611dbd576002829080600181540180825580915050600190039060005260206000200160009091909190916101000a81548173ffffffffffffffffffffffffffffffffffffffff021916908373ffffffffffffffffffffffffffffffffffffffff1602179055505b80600160008473ffffffffffffffffffffffffffffffffffffffff1673ffffffffffffffffffffffffffffffffffffffff1681526020019081526020016000206000828254611e0c919061251c565b925050819055505050565b600033905090565b5080546000825590600052602060002090810190611e3d9190611e61565b50565b5080546000825590600052602060002090810190611e5e9190611e61565b50565b5b80821115611e7a576000816000905550600101611e62565b5090565b600080fd5b6000819050919050565b611e9681611e83565b8114611ea157600080fd5b50565b600081359050611eb381611e8d565b92915050565b600060208284031215611ecf57611ece611e7e565b5b6000611edd84828501611ea4565b91505092915050565b600073ffffffffffffffffffffffffffffffffffffffff82169050919050565b6000611f1182611ee6565b9050919050565b611f2181611f06565b82525050565b6000602082019050611f3c6000830184611f18565b92915050565b600081519050919050565b600082825260208201905092915050565b60005b83811015611f7c578082015181840152602081019050611f61565b60008484015250505050565b6000601f19601f8301169050919050565b6000611fa482611f42565b611fae8185611f4d565b9350611fbe818560208601611f5e565b611fc781611f88565b840191505092915050565b60006020820190508181036000830152611fec8184611f99565b905092915050565b611ffd81611f06565b811461200857600080fd5b50565b60008135905061201a81611ff4565b92915050565b60006020828403121561203657612035611e7e565b5b60006120448482850161200b565b91505092915050565b61205681611e83565b82525050565b6000602082019050612071600083018461204d565b92915050565b7f4e487b7100000000000000000000000000000000000000000000000000000000600052602160045260246000fd5b600381106120b7576120b6612077565b5b50565b60008190506120c8826120a6565b919050565b60006120d8826120ba565b9050919050565b6120e8816120cd565b82525050565b600060208201905061210360008301846120df565b92915050565b600081519050919050565b600082825260208201905092915050565b6000819050602082019050919050565b61213e81611f06565b82525050565b60006121508383612135565b60208301905092915050565b6000602082019050919050565b600061217482612109565b61217e8185612114565b935061218983612125565b8060005b838110156121ba5781516121a18882612144565b97506121ac8361215c565b92505060018101905061218d565b5085935050505092915050565b600081519050919050565b600082825260208201905092915050565b6000819050602082019050919050565b6121fc81611e83565b82525050565b600061220e83836121f3565b60208301905092915050565b6000602082019050919050565b6000612232826121c7565b61223c81856121d2565b9350612247836121e3565b8060005b8381101561227857815161225f8882612202565b975061226a8361221a565b92505060018101905061224b565b5085935050505092915050565b6000606082019050818103600083015261229f8186612169565b905081810360208301526122b38185612227565b905081810360408301526122c78184612227565b9050949350505050565b60006040820190506122e6600083018561204d565b6122f3602083018461204d565b9392505050565b600060408201905081810360008301526123148185612169565b905081810360208301526123288184612227565b90509392505050565b7f4e6f20646f6e6174696f6e7320617661696c61626c6520746f2077697468647260008201527f6177000000000000000000000000000000000000000000000000000000000000602082015250565b600061238d602283611f4d565b915061239882612331565b604082019050919050565b600060208201905081810360008301526123bc81612380565b9050919050565b7f4e487b7100000000000000000000000000000000000000000000000000000000600052602260045260246000fd5b6000600282049050600182168061240a57607f821691505b60208210810361241d5761241c6123c3565b5b50919050565b7f50726f6a656374206973206e6f74206f6e676f696e6700000000000000000000600082015250565b6000612459601683611f4d565b915061246482612423565b602082019050919050565b600060208201905081810360008301526124888161244c565b9050919050565b7f4e487b7100000000000000000000000000000000000000000000000000000000600052604160045260246000fd5b7f4e487b7100000000000000000000000000000000000000000000000000000000600052603260045260246000fd5b7f4e487b7100000000000000000000000000000000000000000000000000000000600052601160045260246000fd5b600061252782611e83565b915061253283611e83565b925082820190508082111561254a576125496124ed565b5b92915050565b7f50726f6a656374206973206e6f7420616363657074696e6720646f6e6174696f60008201527f6e73000000000000000000000000000000000000000000000000000000000000602082015250565b60006125ac602283611f4d565b91506125b782612550565b604082019050919050565b600060208201905081810360008301526125db8161259f565b9050919050565b7f446f6e6174696f6e206d7573742062652067726561746572207468616e207a6560008201527f726f000000000000000000000000000000000000000000000000000000000000602082015250565b600061263e602283611f4d565b9150612649826125e2565b604082019050919050565b6000602082019050818103600083015261266d81612631565b9050919050565b7f496e76616c696420636f756e7400000000000000000000000000000000000000600082015250565b60006126aa600d83611f4d565b91506126b582612674565b602082019050919050565b600060208201905081810360008301526126d98161269d565b9050919050565b7f476f616c206e6f74206d65742079657400000000000000000000000000000000600082015250565b6000612716601083611f4d565b9150612721826126e0565b602082019050919050565b6000602082019050818103600083015261274581612709565b905091905056fea2646970667358221220068d4d0f42c545400f3f208438277c06062082f77a97d5a1cea64c1e888af8a164736f6c634300081c0033a2646970667358221220c2958aef4f090758abd311eb6445a1d736cc3450fc37fbc524013400b8b1310964736f6c634300081c0033",
  "linkReferences": {},
  "deployedLinkReferences": {}
}